{
  "contractName": "Identity",
  "abi": [
    {
      "inputs": [
        {
          "internalType": "string",
          "name": "_name",
          "type": "string"
        },
        {
          "internalType": "uint256",
          "name": "_age",
          "type": "uint256"
        },
        {
          "internalType": "string",
          "name": "_email",
          "type": "string"
        }
      ],
      "name": "setUser",
      "outputs": [],
      "stateMutability": "nonpayable",
      "type": "function"
    },
    {
      "inputs": [
        {
          "internalType": "address",
          "name": "_user",
          "type": "address"
        }
      ],
      "name": "getUser",
      "outputs": [
        {
          "internalType": "string",
          "name": "",
          "type": "string"
        },
        {
          "internalType": "uint256",
          "name": "",
          "type": "uint256"
        },
        {
          "internalType": "string",
          "name": "",
          "type": "string"
        }
      ],
      "stateMutability": "view",
      "type": "function"
    }
  ],
  "bytecode": "0x608060405234801561000f575f80fd5b506109058061001d5f395ff3fe608060405234801561000f575f80fd5b5060043610610034575f3560e01c80631d706771146100385780636f77926b14610054575b5f80fd5b610052600480360381019061004d919061042d565b610086565b005b61006e6004803603810190610069919061050f565b610119565b60405161007d939291906105c3565b60405180910390f35b6040518060600160405280848152602001838152602001828152505f803373ffffffffffffffffffffffffffffffffffffffff1673ffffffffffffffffffffffffffffffffffffffff1681526020019081526020015f205f820151815f0190816100f09190610800565b506020820151816001015560408201518160020190816101109190610800565b50905050505050565b60605f60605f805f8673ffffffffffffffffffffffffffffffffffffffff1673ffffffffffffffffffffffffffffffffffffffff1681526020019081526020015f206040518060600160405290815f8201805461017590610633565b80601f01602080910402602001604051908101604052809291908181526020018280546101a190610633565b80156101ec5780601f106101c3576101008083540402835291602001916101ec565b820191905f5260205f20905b8154815290600101906020018083116101cf57829003601f168201915b505050505081526020016001820154815260200160028201805461020f90610633565b80601f016020809104026020016040519081016040528092919081815260200182805461023b90610633565b80156102865780601f1061025d57610100808354040283529160200191610286565b820191905f5260205f20905b81548152906001019060200180831161026957829003601f168201915b5050505050815250509050805f015181602001518260400151935093509350509193909250565b5f604051905090565b5f80fd5b5f80fd5b5f80fd5b5f80fd5b5f601f19601f8301169050919050565b7f4e487b71000000000000000000000000000000000000000000000000000000005f52604160045260245ffd5b61030c826102c6565b810181811067ffffffffffffffff8211171561032b5761032a6102d6565b5b80604052505050565b5f61033d6102ad565b90506103498282610303565b919050565b5f67ffffffffffffffff821115610368576103676102d6565b5b610371826102c6565b9050602081019050919050565b828183375f83830152505050565b5f61039e6103998461034e565b610334565b9050828152602081018484840111156103ba576103b96102c2565b5b6103c584828561037e565b509392505050565b5f82601f8301126103e1576103e06102be565b5b81356103f184826020860161038c565b91505092915050565b5f819050919050565b61040c816103fa565b8114610416575f80fd5b50565b5f8135905061042781610403565b92915050565b5f805f60608486031215610444576104436102b6565b5b5f84013567ffffffffffffffff811115610461576104606102ba565b5b61046d868287016103cd565b935050602061047e86828701610419565b925050604084013567ffffffffffffffff81111561049f5761049e6102ba565b5b6104ab868287016103cd565b9150509250925092565b5f73ffffffffffffffffffffffffffffffffffffffff82169050919050565b5f6104de826104b5565b9050919050565b6104ee816104d4565b81146104f8575f80fd5b50565b5f81359050610509816104e5565b92915050565b5f60208284031215610524576105236102b6565b5b5f610531848285016104fb565b91505092915050565b5f81519050919050565b5f82825260208201905092915050565b5f5b83811015610571578082015181840152602081019050610556565b5f8484015250505050565b5f6105868261053a565b6105908185610544565b93506105a0818560208601610554565b6105a9816102c6565b840191505092915050565b6105bd816103fa565b82525050565b5f6060820190508181035f8301526105db818661057c565b90506105ea60208301856105b4565b81810360408301526105fc818461057c565b9050949350505050565b7f4e487b71000000000000000000000000000000000000000000000000000000005f52602260045260245ffd5b5f600282049050600182168061064a57607f821691505b60208210810361065d5761065c610606565b5b50919050565b5f819050815f5260205f209050919050565b5f6020601f8301049050919050565b5f82821b905092915050565b5f600883026106bf7fffffffffffffffffffffffffffffffffffffffffffffffffffffffffffffffff82610684565b6106c98683610684565b95508019841693508086168417925050509392505050565b5f819050919050565b5f6107046106ff6106fa846103fa565b6106e1565b6103fa565b9050919050565b5f819050919050565b61071d836106ea565b6107316107298261070b565b848454610690565b825550505050565b5f90565b610745610739565b610750818484610714565b505050565b5b81811015610773576107685f8261073d565b600181019050610756565b5050565b601f8211156107b85761078981610663565b61079284610675565b810160208510156107a1578190505b6107b56107ad85610675565b830182610755565b50505b505050565b5f82821c905092915050565b5f6107d85f19846008026107bd565b1980831691505092915050565b5f6107f083836107c9565b9150826002028217905092915050565b6108098261053a565b67ffffffffffffffff811115610822576108216102d6565b5b61082c8254610633565b610837828285610777565b5f60209050601f831160018114610868575f8415610856578287015190505b61086085826107e5565b8655506108c7565b601f19841661087686610663565b5f5b8281101561089d57848901518255600182019150602085019450602081019050610878565b868310156108ba57848901516108b6601f8916826107c9565b8355505b6001600288020188555050505b50505050505056fea26469706673582212205ea2a1a633143d12fa2fb5cf382ec68cee36ded718bcd94c8ac77c52cdff7cb364736f6c63430008150033",
  "immutableReferences": {},
  "source": "// SPDX-License-Identifier: MIT\r\npragma solidity ^0.8.0;\r\n\r\ncontract Identity {\r\n    struct User {\r\n        string name;\r\n        uint age;\r\n        string email;\r\n    }\r\n\r\n    mapping(address => User) private users;\r\n\r\n    function setUser(string memory _name, uint _age, string memory _email) public {\r\n        users[msg.sender] = User(_name, _age, _email);\r\n    }\r\n\r\n    function getUser(address _user) public view returns (string memory, uint, string memory) {\r\n        User memory user = users[_user];\r\n        return (user.name, user.age, user.email);\r\n    }\r\n}\r\n",
  "sourcePath": "C:\\Users\\rohit\\Desktop\\hackathon in blockchain\\divs-project\\divs\\contracts\\Identity.sol",
  "compiler": {
    "name": "solc",
    "version": "0.8.21+commit.d9974bed.Emscripten.clang"
  },
  "schemaVersion": "3.4.16",
  "updatedAt": "2024-06-29T13:14:31.764Z",
  "devdoc": {
    "kind": "dev",
    "methods": {},
    "version": 1
  },
  "userdoc": {
    "kind": "user",
    "methods": {},
    "version": 1
  }
}